:100000000C942A000C943C000C943C000C943C0092
:100010000C943C000C943C000C943C000C943C0070
:100020000C943C000C943C000C943C000C943C0060
:100030000C943C000C943C000C943C000C943C0050
:100040000C94BF010C943C000C943C000C943C00BC
:100050000C943C0011241FBECFE5D8E0DEBFCDBF1D
:1000600010E0A0E6B0E001C01D92AC36B107E1F7A8
:100070000E94C3050C94CC050C940000DF93CF9331
:10008000CDB7DEB7A7E2B0E0E7E2F0E080818F71A4
:100090008C93A7E2B0E0E7E2F0E080818F678C9379
:1000A000A7E2B0E0E7E2F0E0808180628C93A6E214
:1000B000B0E0E6E2F0E08081887F8C93A6E2B0E0D9
:1000C000E6E2F0E0808187608C93A6E2B0E0E6E2B1
:1000D000F0E080818F7D8C93A6E2B0E0E6E2F0E074
:1000E000808180688C93CF91DF910895DF93CF93C7
:1000F000CDB7DEB728970FB6F894DEBF0FBECDBFE1
:100100008E8378876F831A821B821C821D821982DC
:1001100080916900882309F063C081E080936900C1
:10012000A7E2B0E0E7E2F0E08081807E8C93A7E276
:10013000B0E0E7E2F0E090818E81892B8C93A6E21B
:10014000B0E0E6E2F0E0808180648C930BC08A81AD
:100150009B81AC81BD810196A11DB11D8A839B83CA
:10016000AC83BD83E6E2F0E0808182958F70882FBA
:1001700090E081709070009761F48A819B81AC81DE
:10018000BD81883823E1920720E0A20720E0B20772
:10019000F1F68A819B81AC81BD81883823E1920789
:1001A00020E0A20720E0B20719F481E089830FC0A4
:1001B000A6E2B0E0E6E2F0E0808180618C93E5E2C7
:1001C000F0E08081EF81F885808310926900E5E29C
:1001D000F0E08081EF81F88580831092690002C091
:1001E00082E08983898128960FB6F894DEBF0FBE1E
:1001F000CDBFCF91DF910895DF93CF9300D000D092
:1002000000D0CDB7DEB78A837C836B835E834D835A
:100210001982809169008823D1F58B819C81009798
:1002200021F08D819E81009719F482E0898331C08D
:1002300081E08093690010926B008B819C81909388
:100240006100809360008D819E8190936300809314
:100250006200A7E2B0E0E7E2F0E08081807E8C936C
:10026000A7E2B0E0E7E2F0E090818A81892B8C93ED
:10027000A6E2B0E0E6E2F0E0808180648C93A6E242
:10028000B0E0E6E2F0E0808188608C9302C082E01A
:100290008983898126960FB6F894DEBF0FBECDBF45
:1002A000CF91DF910895DF93CF9300D00F92CDB718
:1002B000DEB79B838A8319828A819B81009719F418
:1002C00082E0898355C080916900882309F04EC07F
:1002D00081E08093690081E080936B00EA81FB817B
:1002E000808191819093650080936400EA81FB8115
:1002F000828193819093670080936600EA81FB81FD
:10030000848180936A00EA81FB8185819681909344
:1003100063008093620010926800A7E2B0E0E7E219
:10032000F0E08081807E8C93A7E2B0E0E7E2F0E02D
:100330004081209164003091650080916800882F91
:1003400090E0F901E80FF91F8081842B8C93A6E2DD
:10035000B0E0E6E2F0E0808180648C93A6E2B0E059
:10036000E6E2F0E0808188608C9302C082E08983BD
:1003700089810F900F900F90CF91DF9108951F9278
:100380000F920FB60F9211242F933F934F935F93C9
:100390006F937F938F939F93AF93BF93EF93FF934D
:1003A000DF93CF93CDB7DEB780916B008823B9F48C
:1003B000A0916000B0916100E5E2F0E080818C9353
:1003C00010926900E0916200F09163000995A6E245
:1003D000B0E0E6E2F0E08081877F8C9355C08091A9
:1003E0006B00813009F050C02091660030916700A9
:1003F00080916800882F90E0880F991FD901A80F7D
:10040000B91FE5E2F0E08081882F90E011969C937F
:100410008E93809168008F5F809368009091680050
:1004200080916A00981779F410926900E091620057
:10043000F09163000995A6E2B0E0E6E2F0E0808189
:10044000877F8C9321C0A7E2B0E0E7E2F0E08081F3
:10045000807E8C93A7E2B0E0E7E2F0E0408120915B
:1004600064003091650080916800882F90E0F90168
:10047000E80FF91F8081842B8C93A6E2B0E0E6E2BE
:10048000F0E0808180648C93CF91DF91FF91EF91B8
:10049000BF91AF919F918F917F916F915F914F919C
:1004A0003F912F910F900FBE0F901F901895DF93E3
:1004B000CF93CDB7DEB728970FB6F894DEBF0FBE47
:1004C000CDBF8A836B834C8319828B81883008F07F
:1004D000F4C08C81882309F077C08A81282F30E00E
:1004E00038872F838F8198858130910559F12F812D
:1004F0003885223031052CF48F819885009769F07A
:1005000060C02F8138852230310589F18F8198852F
:100510008330910509F440C054C0ABE3B0E0EBE395
:10052000F0E08081482F8B81282F30E081E090E03F
:10053000022E02C0880F991F0A94E2F78095842347
:100540008C93BDC0A8E3B0E0E8E3F0E08081482FE1
:100550008B81282F30E081E090E0022E02C0880FCE
:10056000991F0A94E2F7809584238C93A8C0A5E391
:10057000B0E0E5E3F0E08081482F8B81282F30E068
:1005800081E090E0022E02C0880F991F0A94E2F7E2
:10059000809584238C9393C0A2E3B0E0E2E3F0E083
:1005A0008081482F8B81282F30E081E090E0022E5F
:1005B00002C0880F991F0A94E2F7809584238C93D8
:1005C0007EC081E089837BC08C81813009F072C05C
:1005D0008A81282F30E03E832D838D819E8181305A
:1005E000910549F12D813E81223031052CF48D8118
:1005F0009E81009761F05BC02D813E8122303105E4
:1006000071F18D819E8183309105E9F150C0ABE39A
:10061000B0E0EBE3F0E08081482F8B81282F30E0C1
:1006200081E090E0022E02C0880F991F0A94E2F741
:10063000842B8C9344C0A8E3B0E0E8E3F0E0808131
:10064000482F8B81282F30E081E090E0022E02C0FD
:10065000880F991F0A94E2F7842B8C9330C0A5E38E
:10066000B0E0E5E3F0E08081482F8B81282F30E077
:1006700081E090E0022E02C0880F991F0A94E2F7F1
:10068000842B8C931CC0A2E3B0E0E2E3F0E0808115
:10069000482F8B81282F30E081E090E0022E02C0AD
:1006A000880F991F0A94E2F7842B8C9308C081E08D
:1006B000898305C081E0898302C081E089838981C3
:1006C00028960FB6F894DEBF0FBECDBFCF91DF9155
:1006D0000895DF93CF9300D000D00F92CDB7DEB74F
:1006E0008A836B8319828A818430A8F58A81282FB6
:1006F00030E03D832C838C819D8181309105D1F048
:100700002C813D81223031052CF48C819D81009714
:1007100061F01FC02C813D812230310581F08C8138
:100720009D818330910581F014C0EBE3F0E08B8173
:10073000808311C0E8E3F0E08B8180830CC0E5E3A7
:10074000F0E08B81808307C0E2E3F0E08B8180835F
:1007500002C081E0898389810F900F900F900F90E4
:100760000F90CF91DF910895DF93CF93CDB7DEB790
:1007700027970FB6F894DEBF0FBECDBF8A836B8379
:100780005D834C8319828C819D81009709F478C028
:100790008B81883008F074C08A81282F30E03F8335
:1007A0002E834E815F814130510559F18E819F81A9
:1007B0008230910534F42E813F812115310569F095
:1007C0005CC04E815F814230510579F18E819F81FD
:1007D0008330910509F43DC050C0E9E3F0E0808129
:1007E000282F30E08B81882F90E0A90102C0559519
:1007F00047958A95E2F7CA018170EC81FD8180837B
:1008000041C0E6E3F0E08081282F30E08B81882F23
:1008100090E0A90102C0559547958A95E2F7CA0173
:100820008170EC81FD8180832DC0E3E3F0E0808165
:10083000282F30E08B81882F90E0A90102C05595C8
:1008400047958A95E2F7CA018170EC81FD8180832A
:1008500019C0E0E3F0E08081282F30E08B81882F01
:1008600090E0A90102C0559547958A95E2F7CA0123
:100870008170EC81FD81808305C081E0898302C0A5
:1008800081E08983898127960FB6F894DEBF0FBE79
:10089000CDBFCF91DF910895DF93CF93CDB7DEB772
:1008A00029970FB6F894DEBF0FBECDBF8A836B8346
:1008B0004C8319828C81882309F042C08A81282FB9
:1008C00030E0398728878885998581309105E9F05E
:1008D00028853985223031052CF488859985009743
:1008E00061F02BC02885398522303105B1F088852B
:1008F000998583309105C9F020C0EBE3F0E0808159
:100900006B8140E00E94570266C0E8E3F0E080811E
:100910006B8140E00E9457025EC0E5E3F0E0808119
:100920006B8140E00E94570256C0E2E3F0E0808114
:100930006B8140E00E9457024EC081E089834BC02A
:100940008C81813009F042C08A81282F30E03F83BA
:100950002E838E819F8181309105E9F02E813F8128
:10096000223031052CF48E819F81009761F02BC0DD
:100970002E813F8122303105B1F08E819F818330FD
:100980009105C9F020C0EBE3F0E080816B8141E08C
:100990000E94570220C0E8E3F0E080816B8141E0D3
:1009A0000E94570218C0E5E3F0E080816B8141E0CE
:1009B0000E94570210C0E2E3F0E080816B8141E0C9
:1009C0000E94570208C081E0898305C081E08983C5
:1009D00099819D8302C029812D838D8129960FB62F
:1009E000F894DEBF0FBECDBFCF91DF910895DF93A6
:1009F000CF93CDB7DEB729970FB6F894DEBF0FBE01
:100A0000CDBF8A836B834C8319828C81882309F044
:100A100042C08A81282F30E03987288788859985C8
:100A200081309105E9F028853985223031052CF493
:100A300088859985009761F02BC0288539852230FB
:100A40003105B1F08885998583309105C9F020C0C2
:100A5000EBE3F0E080816B8141E00E94570266C0C9
:100A6000E8E3F0E080816B8141E00E9457025EC0C4
:100A7000E5E3F0E080816B8141E00E94570256C0BF
:100A8000E2E3F0E080816B8141E00E9457024EC0BA
:100A900081E089834BC08C81813009F042C08A811A
:100AA000282F30E03F832E838E819F8181309105F6
:100AB000E9F02E813F81223031052CF48E819F8117
:100AC000009761F02BC02E813F8122303105B1F0BB
:100AD0008E819F8183309105C9F020C0EBE3F0E067
:100AE00080816B8140E00E94570220C0E8E3F0E083
:100AF00080816B8140E00E94570218C0E5E3F0E07E
:100B000080816B8140E00E94570210C0E2E3F0E078
:100B100080816B8140E00E94570208C081E0898398
:100B200005C081E0898399819D8302C029812D833D
:100B30008D8129960FB6F894DEBF0FBECDBFCF9141
:100B4000DF910895DF93CF93CDB7DEB7EAE3F0E00E
:100B500081E08083E7E3F0E01082E4E3F0E01082DC
:100B6000E1E3F0E01082EBE3F0E01082E8E3F0E094
:100B70001082E5E3F0E01082E2E3F0E084E08083BD
:100B8000CF91DF910895DF93CF93CDB7DEB70E9469
:0C0B9000A2050E943E00FFCFF894FFCFAA
:00000001FF
